{
  "contractName": "MyContract",
  "abi": [
    {
      "inputs": [],
      "payable": false,
      "stateMutability": "nonpayable",
      "type": "constructor"
    },
    {
      "constant": true,
      "inputs": [],
      "name": "value",
      "outputs": [
        {
          "internalType": "string",
          "name": "",
          "type": "string"
        }
      ],
      "payable": false,
      "stateMutability": "view",
      "type": "function"
    },
    {
      "constant": true,
      "inputs": [],
      "name": "get",
      "outputs": [
        {
          "internalType": "string",
          "name": "",
          "type": "string"
        }
      ],
      "payable": false,
      "stateMutability": "view",
      "type": "function"
    },
    {
      "constant": false,
      "inputs": [
        {
          "internalType": "string",
          "name": "_value",
          "type": "string"
        }
      ],
      "name": "set",
      "outputs": [],
      "payable": false,
      "stateMutability": "nonpayable",
      "type": "function"
    }
  ],
  "bytecode": "0x608060405234801561001057600080fd5b50604080518082019091526007808252666d7956616c756560c81b602090920191825261003f91600091610045565b506100e0565b828054600181600116156101000203166002900490600052602060002090601f016020900481019282601f1061008657805160ff19168380011785556100b3565b828001600101855582156100b3579182015b828111156100b3578251825591602001919060010190610098565b506100bf9291506100c3565b5090565b6100dd91905b808211156100bf57600081556001016100c9565b90565b61037c806100ef6000396000f3fe608060405234801561001057600080fd5b50600436106100415760003560e01c80633fa4f245146100465780634ed3885e146100c35780636d4ce63c1461016b575b600080fd5b61004e610173565b6040805160208082528351818301528351919283929083019185019080838360005b83811015610088578181015183820152602001610070565b50505050905090810190601f1680156100b55780820380516001836020036101000a031916815260200191505b509250505060405180910390f35b610169600480360360208110156100d957600080fd5b8101906020810181356401000000008111156100f457600080fd5b82018360208201111561010657600080fd5b8035906020019184600183028401116401000000008311171561012857600080fd5b91908080601f016020809104026020016040519081016040528093929190818152602001838380828437600092019190915250929550610201945050505050565b005b61004e610218565b6000805460408051602060026001851615610100026000190190941693909304601f810184900484028201840190925281815292918301828280156101f95780601f106101ce576101008083540402835291602001916101f9565b820191906000526020600020905b8154815290600101906020018083116101dc57829003601f168201915b505050505081565b80516102149060009060208401906102af565b5050565b60008054604080516020601f60026000196101006001881615020190951694909404938401819004810282018101909252828152606093909290918301828280156102a45780601f10610279576101008083540402835291602001916102a4565b820191906000526020600020905b81548152906001019060200180831161028757829003601f168201915b505050505090505b90565b828054600181600116156101000203166002900490600052602060002090601f016020900481019282601f106102f057805160ff191683800117855561031d565b8280016001018555821561031d579182015b8281111561031d578251825591602001919060010190610302565b5061032992915061032d565b5090565b6102ac91905b80821115610329576000815560010161033356fea265627a7a7231582052c458a2a35eb5c1ff7f21df4192816c36684c309e502e3f90c0cf1e6029ec4464736f6c63430005100032",
  "source": "pragma solidity >=0.4.24;\r\n\r\ncontract MyContract {\r\n    string public value;\r\n\r\n    constructor() public {\r\n        value = \"myValue\";\r\n    }\r\n\r\n    function get() public view returns(string memory) {\r\n        return value;\r\n    }\r\n\r\n    function set(string memory _value) public {\r\n        value = _value;\r\n    }\r\n}",
  "sourcePath": "C:\\Users\\TedWu\\blockchain-toolkit\\contracts\\MyContract.sol",
  "compiler": {
    "name": "solc",
    "version": "0.5.16+commit.9c3226ce.Emscripten.clang"
  },
  "schemaVersion": "3.4.13",
  "updatedAt": "2023-04-11T22:50:32.159Z",
  "devdoc": {
    "methods": {}
  },
  "userdoc": {
    "methods": {}
  }
}